{
  "contractName": "Election",
  "abi": [
    {
      "inputs": [],
      "payable": false,
      "stateMutability": "nonpayable",
      "type": "constructor"
    },
    {
      "anonymous": false,
      "inputs": [
        {
          "indexed": false,
          "internalType": "string",
          "name": "",
          "type": "string"
        },
        {
          "indexed": false,
          "internalType": "address",
          "name": "",
          "type": "address"
        }
      ],
      "name": "Vote",
      "type": "event"
    },
    {
      "constant": false,
      "inputs": [],
      "name": "start_election",
      "outputs": [],
      "payable": false,
      "stateMutability": "nonpayable",
      "type": "function"
    },
    {
      "constant": false,
      "inputs": [],
      "name": "end_election",
      "outputs": [],
      "payable": false,
      "stateMutability": "nonpayable",
      "type": "function"
    },
    {
      "constant": false,
      "inputs": [
        {
          "internalType": "string",
          "name": "id",
          "type": "string"
        }
      ],
      "name": "register_candidate",
      "outputs": [],
      "payable": false,
      "stateMutability": "nonpayable",
      "type": "function"
    },
    {
      "constant": false,
      "inputs": [
        {
          "internalType": "string",
          "name": "id",
          "type": "string"
        }
      ],
      "name": "vote",
      "outputs": [],
      "payable": false,
      "stateMutability": "nonpayable",
      "type": "function"
    },
    {
      "constant": true,
      "inputs": [],
      "name": "get_num_candidates",
      "outputs": [
        {
          "internalType": "uint256",
          "name": "",
          "type": "uint256"
        }
      ],
      "payable": false,
      "stateMutability": "view",
      "type": "function"
    },
    {
      "constant": true,
      "inputs": [
        {
          "internalType": "uint256",
          "name": "i",
          "type": "uint256"
        }
      ],
      "name": "get_candidate",
      "outputs": [
        {
          "internalType": "string",
          "name": "_candidate",
          "type": "string"
        },
        {
          "internalType": "uint256",
          "name": "_votes",
          "type": "uint256"
        }
      ],
      "payable": false,
      "stateMutability": "view",
      "type": "function"
    }
  ],
  "bytecode": "0x608060405234801561001057600080fd5b50336000806101000a81548173ffffffffffffffffffffffffffffffffffffffff021916908373ffffffffffffffffffffffffffffffffffffffff160217905550610b0a806100606000396000f3fe608060405234801561001057600080fd5b50600436106100625760003560e01c80634af5f65214610067578063668d8b92146101225780636f3e5ef31461014057806395fc395d1461014a578063d1978776146101f8578063fc36e15b14610202575b600080fd5b6101206004803603602081101561007d57600080fd5b810190808035906020019064010000000081111561009a57600080fd5b8201836020820111156100ac57600080fd5b803590602001918460018302840111640100000000831117156100ce57600080fd5b91908080601f016020809104026020016040519081016040528093929190818152602001838380828437600081840152601f19601f8201169050808301925050505050505091929192905050506102bd565b005b61012a6103c1565b6040518082815260200191505060405180910390f35b6101486103ce565b005b6101766004803603602081101561016057600080fd5b81019080803590602001909291905050506104ad565b6040518080602001838152602001828103825284818151815260200191508051906020019080838360005b838110156101bc5780820151818401526020810190506101a1565b50505050905090810190601f1680156101e95780820380516001836020036101000a031916815260200191505b50935050505060405180910390f35b6102006105d4565b005b6102bb6004803603602081101561021857600080fd5b810190808035906020019064010000000081111561023557600080fd5b82018360208201111561024757600080fd5b8035906020019184600183028401116401000000008311171561026957600080fd5b91908080601f016020809104026020016040519081016040528093929190818152602001838380828437600081840152601f19601f8201169050808301925050505050505091929192905050506106b3565b005b6000809054906101000a900473ffffffffffffffffffffffffffffffffffffffff1673ffffffffffffffffffffffffffffffffffffffff163373ffffffffffffffffffffffffffffffffffffffff161461037f576040517f08c379a00000000000000000000000000000000000000000000000000000000081526004018080602001828103825260168152602001807f6e6f7420656c656374696f6e20617574686f726974790000000000000000000081525060200191505060405180910390fd5b60018190806001815401808255809150509060018203906000526020600020016000909192909190915090805190602001906103bc929190610a30565b505050565b6000600180549050905090565b6000809054906101000a900473ffffffffffffffffffffffffffffffffffffffff1673ffffffffffffffffffffffffffffffffffffffff163373ffffffffffffffffffffffffffffffffffffffff1614610490576040517f08c379a00000000000000000000000000000000000000000000000000000000081526004018080602001828103825260168152602001807f6e6f7420656c656374696f6e20617574686f726974790000000000000000000081525060200191505060405180910390fd5b6001600460016101000a81548160ff021916908315150217905550565b60606000600183815481106104be57fe5b906000526020600020018054600181600116156101000203166002900480601f01602080910402602001604051908101604052809291908181526020018280546001816001161561010002031660029004801561055c5780601f106105315761010080835404028352916020019161055c565b820191906000526020600020905b81548152906001019060200180831161053f57829003601f168201915b505050505091506002826040518082805190602001908083835b602083106105995780518252602082019150602081019050602083039250610576565b6001836020036101000a0380198251168184511680821785525050505050509050019150509081526020016040518091039020549050915091565b6000809054906101000a900473ffffffffffffffffffffffffffffffffffffffff1673ffffffffffffffffffffffffffffffffffffffff163373ffffffffffffffffffffffffffffffffffffffff1614610696576040517f08c379a00000000000000000000000000000000000000000000000000000000081526004018080602001828103825260168152602001807f6e6f7420656c656374696f6e20617574686f726974790000000000000000000081525060200191505060405180910390fd5b6001600460006101000a81548160ff021916908315150217905550565b60011515600460009054906101000a900460ff1615151461073c576040517f08c379a00000000000000000000000000000000000000000000000000000000081526004018080602001828103825260148152602001807f656c656374696f6e206e6f74207374617274656400000000000000000000000081525060200191505060405180910390fd5b60011515600460019054906101000a900460ff16151514156107c6576040517f08c379a000000000000000000000000000000000000000000000000000000000815260040180806020018281038252600e8152602001807f656c656374696f6e20656e64656400000000000000000000000000000000000081525060200191505060405180910390fd5b60011515600360003373ffffffffffffffffffffffffffffffffffffffff1673ffffffffffffffffffffffffffffffffffffffff16815260200190815260200160002060009054906101000a900460ff161515141561088d576040517f08c379a000000000000000000000000000000000000000000000000000000000815260040180806020018281038252600a8152602001807f766f74652074776963650000000000000000000000000000000000000000000081525060200191505060405180910390fd5b60016002826040518082805190602001908083835b602083106108c557805182526020820191506020810190506020830392506108a2565b6001836020036101000a0380198251168184511680821785525050505050509050019150509081526020016040518091039020600082825401925050819055506001600360003373ffffffffffffffffffffffffffffffffffffffff1673ffffffffffffffffffffffffffffffffffffffff16815260200190815260200160002060006101000a81548160ff0219169083151502179055507f6df8a0bf3c87bd629e9f543b9d0831beeea8b80de3f478dd846541ed8d97405b813360405180806020018373ffffffffffffffffffffffffffffffffffffffff1673ffffffffffffffffffffffffffffffffffffffff168152602001828103825284818151815260200191508051906020019080838360005b838110156109f25780820151818401526020810190506109d7565b50505050905090810190601f168015610a1f5780820380516001836020036101000a031916815260200191505b50935050505060405180910390a150565b828054600181600116156101000203166002900490600052602060002090601f016020900481019282601f10610a7157805160ff1916838001178555610a9f565b82800160010185558215610a9f579182015b82811115610a9e578251825591602001919060010190610a83565b5b509050610aac9190610ab0565b5090565b610ad291905b80821115610ace576000816000905550600101610ab6565b5090565b9056fea265627a7a723158202f75d6e5b5d608328dad23964cefceb9173108c5463dac2e0f189892b0327d8664736f6c63430005100032",
  "source": "// SPDX-License-Identifier: MIT\npragma solidity >=0.4.22 <0.9.0;\n\ncontract Election {\n  address electionAuthority;\n  string[] candidates; // Registered candidates\n  mapping (string => uint) votes; // Candidate ID to number of votes\n  mapping (address => bool) hasVoted; // If a registered voter has voted or not\n  event Vote(string, address);\n  bool isElectionStarted;\n  bool isElectionEnded;\n\n  constructor() public {\n    electionAuthority = msg.sender;\n  }\n\n  modifier only_election_authority() {\n    require(msg.sender == electionAuthority, \"not election authority\");\n    _;\n  }\n  \n  modifier vote_only_once() {\n    require(hasVoted[msg.sender] != true, \"vote twice\");\n    _;\n  }\n\n  modifier election_started() {\n    require(isElectionStarted == true, \"election not started\");\n    _;\n  }\n\n  modifier election_not_ended() {\n    require(isElectionEnded != true, \"election ended\");\n    _;\n  }\n  \n  function start_election() public\n    only_election_authority\n  {\n    isElectionStarted = true;\n  }\n\n  function end_election() public\n    only_election_authority\n  {\n    isElectionEnded = true;\n  }\n\n  function register_candidate(string memory id) public\n    only_election_authority\n  {\n    candidates.push(id);\n  }\n  \n  function vote(string memory id) public\n    election_started\n    election_not_ended\n    vote_only_once\n  {\n    votes[id] += 1;\n    hasVoted[msg.sender] = true;\n    emit Vote(id, msg.sender);\n  }\n  \n  function get_num_candidates() public view returns(uint) {\n    return candidates.length;\n  }\n  \n  function get_candidate(uint i) public\n    view returns(string memory _candidate, uint _votes)\n  {\n    _candidate = candidates[i];\n    _votes = votes[_candidate];\n  }\n}\n",
  "sourcePath": "/home/cekingx/Coding/ethereum/truffle/simvoni-contract/contracts/Election.sol",
  "compiler": {
    "name": "solc",
    "version": "0.5.16+commit.9c3226ce.Emscripten.clang"
  },
  "schemaVersion": "3.3.4",
  "updatedAt": "2021-05-17T09:26:00.004Z",
  "networkType": "ethereum",
  "devdoc": {
    "methods": {}
  },
  "userdoc": {
    "methods": {}
  }
}