{
  "contractName": "BallotContract",
  "abi": [
    {
      "inputs": [],
      "payable": false,
      "stateMutability": "nonpayable",
      "type": "constructor"
    },
    {
      "constant": false,
      "inputs": [],
      "name": "start_election",
      "outputs": [],
      "payable": false,
      "stateMutability": "nonpayable",
      "type": "function"
    },
    {
      "constant": false,
      "inputs": [],
      "name": "end_election",
      "outputs": [],
      "payable": false,
      "stateMutability": "nonpayable",
      "type": "function"
    },
    {
      "constant": false,
      "inputs": [
        {
          "internalType": "string",
          "name": "id",
          "type": "string"
        }
      ],
      "name": "register_candidate",
      "outputs": [],
      "payable": false,
      "stateMutability": "nonpayable",
      "type": "function"
    },
    {
      "constant": false,
      "inputs": [
        {
          "internalType": "string",
          "name": "id",
          "type": "string"
        }
      ],
      "name": "vote",
      "outputs": [],
      "payable": false,
      "stateMutability": "nonpayable",
      "type": "function"
    },
    {
      "constant": true,
      "inputs": [],
      "name": "get_num_candidates",
      "outputs": [
        {
          "internalType": "uint256",
          "name": "",
          "type": "uint256"
        }
      ],
      "payable": false,
      "stateMutability": "view",
      "type": "function"
    },
    {
      "constant": true,
      "inputs": [
        {
          "internalType": "uint256",
          "name": "i",
          "type": "uint256"
        }
      ],
      "name": "get_candidate",
      "outputs": [
        {
          "internalType": "string",
          "name": "_candidate",
          "type": "string"
        },
        {
          "internalType": "uint256",
          "name": "_votes",
          "type": "uint256"
        }
      ],
      "payable": false,
      "stateMutability": "view",
      "type": "function"
    },
    {
      "constant": true,
      "inputs": [],
      "name": "get_election_status",
      "outputs": [
        {
          "internalType": "string",
          "name": "_status",
          "type": "string"
        }
      ],
      "payable": false,
      "stateMutability": "view",
      "type": "function"
    }
  ],
  "bytecode": "0x608060405234801561001057600080fd5b50336000806101000a81548173ffffffffffffffffffffffffffffffffffffffff021916908373ffffffffffffffffffffffffffffffffffffffff16021790555061099b806100606000396000f3fe608060405234801561001057600080fd5b506004361061007d5760003560e01c80636f3e5ef31161005b5780636f3e5ef3146101de57806395fc395d146101e8578063d197877614610296578063fc36e15b146102a05761007d565b806338c6f02f146100825780634af5f65214610105578063668d8b92146101c0575b600080fd5b61008a61035b565b6040518080602001828103825283818151815260200191508051906020019080838360005b838110156100ca5780820151818401526020810190506100af565b50505050905090810190601f1680156100f75780820380516001836020036101000a031916815260200191505b509250505060405180910390f35b6101be6004803603602081101561011b57600080fd5b810190808035906020019064010000000081111561013857600080fd5b82018360208201111561014a57600080fd5b8035906020019184600183028401116401000000008311171561016c57600080fd5b91908080601f016020809104026020016040519081016040528093929190818152602001838380828437600081840152601f19601f82011690508083019250505050505050919291929050505061049d565b005b6101c8610538565b6040518082815260200191505060405180910390f35b6101e6610545565b005b610214600480360360208110156101fe57600080fd5b81019080803590602001909291905050506105bb565b6040518080602001838152602001828103825284818151815260200191508051906020019080838360005b8381101561025a57808201518184015260208101905061023f565b50505050905090810190601f1680156102875780820380516001836020036101000a031916815260200191505b50935050505060405180910390f35b61029e6106e2565b005b610359600480360360208110156102b657600080fd5b81019080803590602001906401000000008111156102d357600080fd5b8201836020820111156102e557600080fd5b8035906020019184600183028401116401000000008311171561030757600080fd5b91908080601f016020809104026020016040519081016040528093929190818152602001838380828437600081840152601f19601f820116905080830192505050505050509192919290505050610758565b005b606060001515600060149054906101000a900460ff16151514156103b2576040518060400160405280601481526020017f656c656374696f6e5f6e6f745f7374617274656400000000000000000000000081525090505b60011515600060149054906101000a900460ff1615151480156103e8575060001515600060159054906101000a900460ff161515145b15610426576040518060400160405280601081526020017f656c656374696f6e5f737461727465640000000000000000000000000000000081525090505b60011515600060149054906101000a900460ff16151514801561045c575060011515600060159054906101000a900460ff161515145b1561049a576040518060400160405280600e81526020017f656c656374696f6e5f656e64656400000000000000000000000000000000000081525090505b90565b6000809054906101000a900473ffffffffffffffffffffffffffffffffffffffff1673ffffffffffffffffffffffffffffffffffffffff163373ffffffffffffffffffffffffffffffffffffffff16146104f657600080fd5b60018190806001815401808255809150509060018203906000526020600020016000909192909190915090805190602001906105339291906108c1565b505050565b6000600180549050905090565b6000809054906101000a900473ffffffffffffffffffffffffffffffffffffffff1673ffffffffffffffffffffffffffffffffffffffff163373ffffffffffffffffffffffffffffffffffffffff161461059e57600080fd5b6001600060156101000a81548160ff021916908315150217905550565b60606000600183815481106105cc57fe5b906000526020600020018054600181600116156101000203166002900480601f01602080910402602001604051908101604052809291908181526020018280546001816001161561010002031660029004801561066a5780601f1061063f5761010080835404028352916020019161066a565b820191906000526020600020905b81548152906001019060200180831161064d57829003601f168201915b505050505091506002826040518082805190602001908083835b602083106106a75780518252602082019150602081019050602083039250610684565b6001836020036101000a0380198251168184511680821785525050505050509050019150509081526020016040518091039020549050915091565b6000809054906101000a900473ffffffffffffffffffffffffffffffffffffffff1673ffffffffffffffffffffffffffffffffffffffff163373ffffffffffffffffffffffffffffffffffffffff161461073b57600080fd5b6001600060146101000a81548160ff021916908315150217905550565b600360003373ffffffffffffffffffffffffffffffffffffffff1673ffffffffffffffffffffffffffffffffffffffff16815260200190815260200160002060009054906101000a900460ff16156107af57600080fd5b60011515600060149054906101000a900460ff1615151480156107e5575060001515600060159054906101000a900460ff161515145b6107ee57600080fd5b60016002826040518082805190602001908083835b602083106108265780518252602082019150602081019050602083039250610803565b6001836020036101000a0380198251168184511680821785525050505050509050019150509081526020016040518091039020600082825401925050819055506001600360003373ffffffffffffffffffffffffffffffffffffffff1673ffffffffffffffffffffffffffffffffffffffff16815260200190815260200160002060006101000a81548160ff02191690831515021790555050565b828054600181600116156101000203166002900490600052602060002090601f016020900481019282601f1061090257805160ff1916838001178555610930565b82800160010185558215610930579182015b8281111561092f578251825591602001919060010190610914565b5b50905061093d9190610941565b5090565b61096391905b8082111561095f576000816000905550600101610947565b5090565b9056fea265627a7a723158205faea0b6a2a11fe88ab81c3cca2558e2a8ddfd33e80b8b9cd10f9de742e9e4e164736f6c63430005100032",
  "source": "pragma solidity >=0.4.22 <0.6.0;\n\ncontract BallotContract {\n    address electionAuthority;\n    bool isElectionStarted;\n    bool isElectionEnded;\n    string[] candidates; // Registered candidates\n    mapping (string => uint) votes; // Candidate ID to number of votes\n    mapping (address => bool) hasVoted; // If a registered voter has voted or not\n    \n    constructor() public{\n        electionAuthority = msg.sender;\n    }\n    \n    modifier only_election_authority() {\n        if (msg.sender != electionAuthority) revert();\n        _;\n    }\n    \n    modifier vote_only_once() {\n        if (hasVoted[msg.sender]) revert();\n        _;\n    }\n    \n    modifier only_during_election_time() {\n        if (!(isElectionStarted == true && isElectionEnded == false)) revert();\n        _;\n    }\n    \n    function start_election() public\n        only_election_authority\n    {\n        isElectionStarted = true;\n    }\n\n    function end_election() public\n        only_election_authority\n    {\n        isElectionEnded = true;\n    }\n  \n    function register_candidate(string memory id) public\n        only_election_authority\n    {\n        candidates.push(id);\n    }\n    \n    function vote(string memory id) public\n        vote_only_once\n        only_during_election_time\n    {\n        votes[id] += 1;\n        hasVoted[msg.sender] = true;\n    }\n\n    function get_num_candidates() public view returns(uint) {\n        \n        return candidates.length;\n    }\n    \n    function get_candidate(uint i) public\n        view returns(string memory _candidate, uint _votes)\n    {\n        _candidate = candidates[i];\n        _votes = votes[_candidate];\n    }\n\n    function get_election_status() public\n        view returns(string memory _status)\n    {\n        if(isElectionStarted == false) {\n            _status = 'election_not_started';\n        }\n\n        if(isElectionStarted == true && isElectionEnded == false) {\n            _status = 'election_started';\n        }\n\n        if(isElectionStarted == true && isElectionEnded == true) {\n            _status = 'election_ended';\n        }\n    }\n}",
  "sourcePath": "/home/cekingx/Coding/ethereum/truffle/voting/contracts/BallotContract.sol",
  "compiler": {
    "name": "solc",
    "version": "0.5.16+commit.9c3226ce.Emscripten.clang"
  },
  "schemaVersion": "3.2.3",
  "updatedAt": "2020-12-10T12:16:03.266Z",
  "networkType": "ethereum",
  "devdoc": {
    "methods": {}
  },
  "userdoc": {
    "methods": {}
  }
}