{
  "_format": "hh-sol-artifact-1",
  "contractName": "Election",
  "sourceName": "contracts/Election.sol",
  "abi": [
    {
      "inputs": [
        {
          "internalType": "string",
          "name": "name_",
          "type": "string"
        },
        {
          "internalType": "uint256[]",
          "name": "weight_",
          "type": "uint256[]"
        }
      ],
      "stateMutability": "nonpayable",
      "type": "constructor"
    },
    {
      "anonymous": false,
      "inputs": [
        {
          "indexed": true,
          "internalType": "address",
          "name": "previousOwner",
          "type": "address"
        },
        {
          "indexed": true,
          "internalType": "address",
          "name": "newOwner",
          "type": "address"
        }
      ],
      "name": "OwnershipTransferred",
      "type": "event"
    },
    {
      "anonymous": false,
      "inputs": [
        {
          "indexed": false,
          "internalType": "string",
          "name": "",
          "type": "string"
        },
        {
          "indexed": false,
          "internalType": "address",
          "name": "",
          "type": "address"
        }
      ],
      "name": "Vote",
      "type": "event"
    },
    {
      "inputs": [],
      "name": "abstain",
      "outputs": [],
      "stateMutability": "nonpayable",
      "type": "function"
    },
    {
      "inputs": [],
      "name": "abstainCount",
      "outputs": [
        {
          "internalType": "uint256",
          "name": "",
          "type": "uint256"
        }
      ],
      "stateMutability": "view",
      "type": "function"
    },
    {
      "inputs": [
        {
          "internalType": "string",
          "name": "id",
          "type": "string"
        }
      ],
      "name": "addCandidate",
      "outputs": [],
      "stateMutability": "nonpayable",
      "type": "function"
    },
    {
      "inputs": [
        {
          "internalType": "uint256",
          "name": "",
          "type": "uint256"
        }
      ],
      "name": "candidates",
      "outputs": [
        {
          "internalType": "string",
          "name": "",
          "type": "string"
        }
      ],
      "stateMutability": "view",
      "type": "function"
    },
    {
      "inputs": [],
      "name": "endElection",
      "outputs": [],
      "stateMutability": "nonpayable",
      "type": "function"
    },
    {
      "inputs": [
        {
          "internalType": "uint256",
          "name": "id",
          "type": "uint256"
        }
      ],
      "name": "getCandidate",
      "outputs": [
        {
          "internalType": "string",
          "name": "",
          "type": "string"
        },
        {
          "internalType": "uint256",
          "name": "",
          "type": "uint256"
        }
      ],
      "stateMutability": "view",
      "type": "function"
    },
    {
      "inputs": [
        {
          "internalType": "address",
          "name": "",
          "type": "address"
        }
      ],
      "name": "hasVoted",
      "outputs": [
        {
          "internalType": "bool",
          "name": "",
          "type": "bool"
        }
      ],
      "stateMutability": "view",
      "type": "function"
    },
    {
      "inputs": [],
      "name": "isEnded",
      "outputs": [
        {
          "internalType": "bool",
          "name": "",
          "type": "bool"
        }
      ],
      "stateMutability": "view",
      "type": "function"
    },
    {
      "inputs": [],
      "name": "isStarted",
      "outputs": [
        {
          "internalType": "bool",
          "name": "",
          "type": "bool"
        }
      ],
      "stateMutability": "view",
      "type": "function"
    },
    {
      "inputs": [],
      "name": "name",
      "outputs": [
        {
          "internalType": "string",
          "name": "",
          "type": "string"
        }
      ],
      "stateMutability": "view",
      "type": "function"
    },
    {
      "inputs": [],
      "name": "owner",
      "outputs": [
        {
          "internalType": "address",
          "name": "",
          "type": "address"
        }
      ],
      "stateMutability": "view",
      "type": "function"
    },
    {
      "inputs": [],
      "name": "renounceOwnership",
      "outputs": [],
      "stateMutability": "nonpayable",
      "type": "function"
    },
    {
      "inputs": [],
      "name": "startElection",
      "outputs": [],
      "stateMutability": "nonpayable",
      "type": "function"
    },
    {
      "inputs": [
        {
          "internalType": "address",
          "name": "newOwner",
          "type": "address"
        }
      ],
      "name": "transferOwnership",
      "outputs": [],
      "stateMutability": "nonpayable",
      "type": "function"
    },
    {
      "inputs": [
        {
          "internalType": "uint256",
          "name": "voterType",
          "type": "uint256"
        },
        {
          "internalType": "uint256",
          "name": "id",
          "type": "uint256"
        }
      ],
      "name": "vote",
      "outputs": [],
      "stateMutability": "nonpayable",
      "type": "function"
    },
    {
      "inputs": [],
      "name": "voteCount",
      "outputs": [
        {
          "internalType": "uint256",
          "name": "",
          "type": "uint256"
        }
      ],
      "stateMutability": "view",
      "type": "function"
    },
    {
      "inputs": [
        {
          "internalType": "uint256",
          "name": "",
          "type": "uint256"
        }
      ],
      "name": "voterWeight",
      "outputs": [
        {
          "internalType": "uint256",
          "name": "",
          "type": "uint256"
        }
      ],
      "stateMutability": "view",
      "type": "function"
    },
    {
      "inputs": [
        {
          "internalType": "string",
          "name": "",
          "type": "string"
        }
      ],
      "name": "votes",
      "outputs": [
        {
          "internalType": "uint256",
          "name": "",
          "type": "uint256"
        }
      ],
      "stateMutability": "view",
      "type": "function"
    }
  ],
  "bytecode": "0x60806040523480156200001157600080fd5b5060405162001ee938038062001ee983398181016040528101906200003791906200038a565b620000576200004b6200009160201b60201c565b6200009960201b60201c565b81600890805190602001906200006f9291906200015d565b50806005908051906020019062000088929190620001ee565b505050620005c0565b600033905090565b60008060009054906101000a900473ffffffffffffffffffffffffffffffffffffffff169050816000806101000a81548173ffffffffffffffffffffffffffffffffffffffff021916908373ffffffffffffffffffffffffffffffffffffffff1602179055508173ffffffffffffffffffffffffffffffffffffffff168173ffffffffffffffffffffffffffffffffffffffff167f8be0079c531659141344cd1fd0a4f28419497f9722a3daafe3b4186f6b6457e060405160405180910390a35050565b8280546200016b90620004cb565b90600052602060002090601f0160209004810192826200018f5760008555620001db565b82601f10620001aa57805160ff1916838001178555620001db565b82800160010185558215620001db579182015b82811115620001da578251825591602001919060010190620001bd565b5b509050620001ea919062000240565b5090565b8280548282559060005260206000209081019282156200022d579160200282015b828111156200022c5782518255916020019190600101906200020f565b5b5090506200023c919062000240565b5090565b5b808211156200025b57600081600090555060010162000241565b5090565b600062000276620002708462000426565b620003fd565b905080838252602082019050828560208602820111156200029657600080fd5b60005b85811015620002ca5781620002af888262000373565b84526020840193506020830192505060018101905062000299565b5050509392505050565b6000620002eb620002e58462000455565b620003fd565b9050828152602081018484840111156200030457600080fd5b6200031184828562000495565b509392505050565b600082601f8301126200032b57600080fd5b81516200033d8482602086016200025f565b91505092915050565b600082601f8301126200035857600080fd5b81516200036a848260208601620002d4565b91505092915050565b6000815190506200038481620005a6565b92915050565b600080604083850312156200039e57600080fd5b600083015167ffffffffffffffff811115620003b957600080fd5b620003c78582860162000346565b925050602083015167ffffffffffffffff811115620003e557600080fd5b620003f38582860162000319565b9150509250929050565b6000620004096200041c565b905062000417828262000501565b919050565b6000604051905090565b600067ffffffffffffffff82111562000444576200044362000566565b5b602082029050602081019050919050565b600067ffffffffffffffff82111562000473576200047262000566565b5b6200047e8262000595565b9050602081019050919050565b6000819050919050565b60005b83811015620004b557808201518184015260208101905062000498565b83811115620004c5576000848401525b50505050565b60006002820490506001821680620004e457607f821691505b60208210811415620004fb57620004fa62000537565b5b50919050565b6200050c8262000595565b810181811067ffffffffffffffff821117156200052e576200052d62000566565b5b80604052505050565b7f4e487b7100000000000000000000000000000000000000000000000000000000600052602260045260246000fd5b7f4e487b7100000000000000000000000000000000000000000000000000000000600052604160045260246000fd5b6000601f19601f8301169050919050565b620005b1816200048b565b8114620005bd57600080fd5b50565b61191980620005d06000396000f3fe608060405234801561001057600080fd5b50600436106101165760003560e01c80635e98e4c7116100a2578063a4fd6f5611610071578063a4fd6f5614610298578063b384abef146102b6578063b99ef1fa146102d2578063c638407114610302578063f2fde38b1461032057610116565b80635e98e4c71461025c57806362d73eb814610266578063715018a6146102705780638da5cb5b1461027a57610116565b806335b8e820116100e957806335b8e820146101c95780633e118090146101fa578063462e91ec14610218578063544736e61461023457806359f784681461025257610116565b806306fdde031461011b57806309eef43e146101395780633147e316146101695780633477ee2e14610199575b600080fd5b61012361033c565b60405161013091906113c9565b60405180910390f35b610153600480360381019061014e9190611051565b6103ca565b60405161016091906113ae565b60405180910390f35b610183600480360381019061017e91906110bb565b6103ea565b60405161019091906114eb565b60405180910390f35b6101b360048036038101906101ae91906110bb565b61040e565b6040516101c091906113c9565b60405180910390f35b6101e360048036038101906101de91906110bb565b6104ba565b6040516101f19291906113eb565b60405180910390f35b6102026105be565b60405161020f91906114eb565b60405180910390f35b610232600480360381019061022d919061107a565b6105c4565b005b61023c61067f565b60405161024991906113ae565b60405180910390f35b61025a610692565b005b61026461072b565b005b61026e6108dc565b005b610278610975565b005b6102826109fd565b60405161028f9190611393565b60405180910390f35b6102a0610a26565b6040516102ad91906113ae565b60405180910390f35b6102d060048036038101906102cb91906110e4565b610a39565b005b6102ec60048036038101906102e7919061107a565b610d24565b6040516102f991906114eb565b60405180910390f35b61030a610d52565b60405161031791906114eb565b60405180910390f35b61033a60048036038101906103359190611051565b610d58565b005b6008805461034990611678565b80601f016020809104026020016040519081016040528092919081815260200182805461037590611678565b80156103c25780601f10610397576101008083540402835291602001916103c2565b820191906000526020600020905b8154815290600101906020018083116103a557829003601f168201915b505050505081565b60036020528060005260406000206000915054906101000a900460ff1681565b600581815481106103fa57600080fd5b906000526020600020016000915090505481565b6001818154811061041e57600080fd5b90600052602060002001600091509050805461043990611678565b80601f016020809104026020016040519081016040528092919081815260200182805461046590611678565b80156104b25780601f10610487576101008083540402835291602001916104b2565b820191906000526020600020905b81548152906001019060200180831161049557829003601f168201915b505050505081565b6060600080600184815481106104f9577f4e487b7100000000000000000000000000000000000000000000000000000000600052603260045260246000fd5b90600052602060002001805461050e90611678565b80601f016020809104026020016040519081016040528092919081815260200182805461053a90611678565b80156105875780601f1061055c57610100808354040283529160200191610587565b820191906000526020600020905b81548152906001019060200180831161056a57829003601f168201915b5050505050905060006002826040516105a09190611365565b90815260200160405180910390205490508181935093505050915091565b60075481565b6105cc610e50565b73ffffffffffffffffffffffffffffffffffffffff166105ea6109fd565b73ffffffffffffffffffffffffffffffffffffffff1614610640576040517f08c379a00000000000000000000000000000000000000000000000000000000081526004016106379061146b565b60405180910390fd5b60018190806001815401808255809150506001900390600052602060002001600090919091909150908051906020019061067b929190610f1c565b5050565b600460009054906101000a900460ff1681565b61069a610e50565b73ffffffffffffffffffffffffffffffffffffffff166106b86109fd565b73ffffffffffffffffffffffffffffffffffffffff161461070e576040517f08c379a00000000000000000000000000000000000000000000000000000000081526004016107059061146b565b60405180910390fd5b6001600460016101000a81548160ff021916908315150217905550565b60001515600360003373ffffffffffffffffffffffffffffffffffffffff1673ffffffffffffffffffffffffffffffffffffffff16815260200190815260200160002060009054906101000a900460ff161515146107be576040517f08c379a00000000000000000000000000000000000000000000000000000000081526004016107b59061148b565b60405180910390fd5b60011515600460009054906101000a900460ff16151514610814576040517f08c379a000000000000000000000000000000000000000000000000000000000815260040161080b906114ab565b60405180910390fd5b60001515600460019054906101000a900460ff1615151461086a576040517f08c379a0000000000000000000000000000000000000000000000000000000008152600401610861906114cb565b60405180910390fd5b6001600360003373ffffffffffffffffffffffffffffffffffffffff1673ffffffffffffffffffffffffffffffffffffffff16815260200190815260200160002060006101000a81548160ff021916908315150217905550600760008154809291906108d5906116db565b9190505550565b6108e4610e50565b73ffffffffffffffffffffffffffffffffffffffff166109026109fd565b73ffffffffffffffffffffffffffffffffffffffff1614610958576040517f08c379a000000000000000000000000000000000000000000000000000000000815260040161094f9061146b565b60405180910390fd5b6001600460006101000a81548160ff021916908315150217905550565b61097d610e50565b73ffffffffffffffffffffffffffffffffffffffff1661099b6109fd565b73ffffffffffffffffffffffffffffffffffffffff16146109f1576040517f08c379a00000000000000000000000000000000000000000000000000000000081526004016109e89061146b565b60405180910390fd5b6109fb6000610e58565b565b60008060009054906101000a900473ffffffffffffffffffffffffffffffffffffffff16905090565b600460019054906101000a900460ff1681565b60001515600360003373ffffffffffffffffffffffffffffffffffffffff1673ffffffffffffffffffffffffffffffffffffffff16815260200190815260200160002060009054906101000a900460ff16151514610acc576040517f08c379a0000000000000000000000000000000000000000000000000000000008152600401610ac39061148b565b60405180910390fd5b60011515600460009054906101000a900460ff16151514610b22576040517f08c379a0000000000000000000000000000000000000000000000000000000008152600401610b19906114ab565b60405180910390fd5b60001515600460019054906101000a900460ff16151514610b78576040517f08c379a0000000000000000000000000000000000000000000000000000000008152600401610b6f906114cb565b60405180910390fd5b60058281548110610bb2577f4e487b7100000000000000000000000000000000000000000000000000000000600052603260045260246000fd5b9060005260206000200154600260018381548110610bf9577f4e487b7100000000000000000000000000000000000000000000000000000000600052603260045260246000fd5b90600052602060002001604051610c10919061137c565b90815260200160405180910390206000828254610c2d9190611598565b925050819055506001600360003373ffffffffffffffffffffffffffffffffffffffff1673ffffffffffffffffffffffffffffffffffffffff16815260200190815260200160002060006101000a81548160ff02191690831515021790555060066000815480929190610c9f906116db565b91905055507f6df8a0bf3c87bd629e9f543b9d0831beeea8b80de3f478dd846541ed8d97405b60018281548110610cff577f4e487b7100000000000000000000000000000000000000000000000000000000600052603260045260246000fd5b9060005260206000200133604051610d1892919061141b565b60405180910390a15050565b6002818051602081018201805184825260208301602085012081835280955050505050506000915090505481565b60065481565b610d60610e50565b73ffffffffffffffffffffffffffffffffffffffff16610d7e6109fd565b73ffffffffffffffffffffffffffffffffffffffff1614610dd4576040517f08c379a0000000000000000000000000000000000000000000000000000000008152600401610dcb9061146b565b60405180910390fd5b600073ffffffffffffffffffffffffffffffffffffffff168173ffffffffffffffffffffffffffffffffffffffff161415610e44576040517f08c379a0000000000000000000000000000000000000000000000000000000008152600401610e3b9061144b565b60405180910390fd5b610e4d81610e58565b50565b600033905090565b60008060009054906101000a900473ffffffffffffffffffffffffffffffffffffffff169050816000806101000a81548173ffffffffffffffffffffffffffffffffffffffff021916908373ffffffffffffffffffffffffffffffffffffffff1602179055508173ffffffffffffffffffffffffffffffffffffffff168173ffffffffffffffffffffffffffffffffffffffff167f8be0079c531659141344cd1fd0a4f28419497f9722a3daafe3b4186f6b6457e060405160405180910390a35050565b828054610f2890611678565b90600052602060002090601f016020900481019282610f4a5760008555610f91565b82601f10610f6357805160ff1916838001178555610f91565b82800160010185558215610f91579182015b82811115610f90578251825591602001919060010190610f75565b5b509050610f9e9190610fa2565b5090565b5b80821115610fbb576000816000905550600101610fa3565b5090565b6000610fd2610fcd8461152b565b611506565b905082815260208101848484011115610fea57600080fd5b610ff5848285611636565b509392505050565b60008135905061100c816118b5565b92915050565b600082601f83011261102357600080fd5b8135611033848260208601610fbf565b91505092915050565b60008135905061104b816118cc565b92915050565b60006020828403121561106357600080fd5b600061107184828501610ffd565b91505092915050565b60006020828403121561108c57600080fd5b600082013567ffffffffffffffff8111156110a657600080fd5b6110b284828501611012565b91505092915050565b6000602082840312156110cd57600080fd5b60006110db8482850161103c565b91505092915050565b600080604083850312156110f757600080fd5b60006111058582860161103c565b92505060206111168582860161103c565b9150509250929050565b611129816115ee565b82525050565b61113881611600565b82525050565b600061114982611571565b611153818561157c565b9350611163818560208601611645565b61116c816117b1565b840191505092915050565b600061118282611571565b61118c818561158d565b935061119c818560208601611645565b80840191505092915050565b600081546111b581611678565b6111bf818661157c565b945060018216600081146111da57600181146111ec5761121f565b60ff198316865260208601935061121f565b6111f58561155c565b60005b83811015611217578154818901526001820191506020810190506111f8565b808801955050505b50505092915050565b6000815461123581611678565b61123f818661158d565b9450600182166000811461125a576001811461126b5761129e565b60ff1983168652818601935061129e565b6112748561155c565b60005b8381101561129657815481890152600182019150602081019050611277565b838801955050505b50505092915050565b60006112b460268361157c565b91506112bf826117c2565b604082019050919050565b60006112d760208361157c565b91506112e282611811565b602082019050919050565b60006112fa600c8361157c565b91506113058261183a565b602082019050919050565b600061131d600b8361157c565b915061132882611863565b602082019050919050565b600061134060058361157c565b915061134b8261188c565b602082019050919050565b61135f8161162c565b82525050565b60006113718284611177565b915081905092915050565b60006113888284611228565b915081905092915050565b60006020820190506113a86000830184611120565b92915050565b60006020820190506113c3600083018461112f565b92915050565b600060208201905081810360008301526113e3818461113e565b905092915050565b60006040820190508181036000830152611405818561113e565b90506114146020830184611356565b9392505050565b6000604082019050818103600083015261143581856111a8565b90506114446020830184611120565b9392505050565b60006020820190508181036000830152611464816112a7565b9050919050565b60006020820190508181036000830152611484816112ca565b9050919050565b600060208201905081810360008301526114a4816112ed565b9050919050565b600060208201905081810360008301526114c481611310565b9050919050565b600060208201905081810360008301526114e481611333565b9050919050565b60006020820190506115006000830184611356565b92915050565b6000611510611521565b905061151c82826116aa565b919050565b6000604051905090565b600067ffffffffffffffff82111561154657611545611782565b5b61154f826117b1565b9050602081019050919050565b60008190508160005260206000209050919050565b600081519050919050565b600082825260208201905092915050565b600081905092915050565b60006115a38261162c565b91506115ae8361162c565b9250827fffffffffffffffffffffffffffffffffffffffffffffffffffffffffffffffff038211156115e3576115e2611724565b5b828201905092915050565b60006115f98261160c565b9050919050565b60008115159050919050565b600073ffffffffffffffffffffffffffffffffffffffff82169050919050565b6000819050919050565b82818337600083830152505050565b60005b83811015611663578082015181840152602081019050611648565b83811115611672576000848401525b50505050565b6000600282049050600182168061169057607f821691505b602082108114156116a4576116a3611753565b5b50919050565b6116b3826117b1565b810181811067ffffffffffffffff821117156116d2576116d1611782565b5b80604052505050565b60006116e68261162c565b91507fffffffffffffffffffffffffffffffffffffffffffffffffffffffffffffffff82141561171957611718611724565b5b600182019050919050565b7f4e487b7100000000000000000000000000000000000000000000000000000000600052601160045260246000fd5b7f4e487b7100000000000000000000000000000000000000000000000000000000600052602260045260246000fd5b7f4e487b7100000000000000000000000000000000000000000000000000000000600052604160045260246000fd5b6000601f19601f8301169050919050565b7f4f776e61626c653a206e6577206f776e657220697320746865207a65726f206160008201527f6464726573730000000000000000000000000000000000000000000000000000602082015250565b7f4f776e61626c653a2063616c6c6572206973206e6f7420746865206f776e6572600082015250565b7f616c726561647920766f74650000000000000000000000000000000000000000600082015250565b7f6e6f742073746172746564000000000000000000000000000000000000000000600082015250565b7f656e646564000000000000000000000000000000000000000000000000000000600082015250565b6118be816115ee565b81146118c957600080fd5b50565b6118d58161162c565b81146118e057600080fd5b5056fea26469706673582212205598ef42bbd08a0dfb402e762976871f84cab461a3c96b0ac41df37df033f06864736f6c63430008040033",
  "linkReferences": {},
  "deployedLinkReferences": {}
}